:1000000000308A0044280000FF00030E8301A10095
:100010000A08A0008A010408A2007708A300780853
:10002000A4007908A5007A08A600831383128B1D0B
:100030001B280B182C28220884002308F70024080A
:10004000F8002508F9002608FA0020088A00210E89
:100050008300FF0E7F0E09008A110A122F288316D3
:10006000061683122810061A281428183C2883160E
:1000700086108312861440288316861083128610F9
:100080000B108A110A121B2803081F3983008316DC
:10009000051083120514FF30A70019308316920053
:1000A00004308312920027112708831687000C3032
:1000B000831295003C30970083161F149F141F1560
:1000C0009F1107309C00831301308500103086009B
:1000D000003087008312A7008316850183128501F3
:1000E0008316860183128601A70083168701831277
:0C00F00087018B15C0308B047C28630056
:02400E00313F40
:00000001FF
;PIC16F877A
;CRC=5F9F  CREATED="10-oct.-14 01:20"
