:1000000001308A00BC290000FF00030E8301A1001B
:100010000A08A0008A010408A2007708A300780853
:10002000A4007908A5007A08A600831383128B1E0A
:100030001B280B1930288B1D1F280B18332822086A
:1000400084002308F7002408F8002508F900260892
:10005000FA0020088A00210E8300FF0E7F0E09009F
:100060008A110A1236288A110A121F298330810048
:100070000230A806A90A0319AA0A2908403C031D50
:100080004F282A081F3C031D4F28831606110430F1
:1000900083128606AB0A0319AC0AAA01A9010B1147
:1000A0008A110A121F280B08AE008B138316031740
:1000B0008C170C14000000000318862883120C080B
:1000C0007F390313AF0003170D080313B0000317A4
:1000D0000F080313B1002F080C1E6C28990030087C
:1000E00003178D000313310803178F0083168C1735
:1000F0000C140000000083120313AD0B802883282A
:10010000831603178628A6288316031783120C0D5F
:100110000E0D7F390313AF0003170D080313B00052
:1001200003170F080313B1002F080C1E9528990020
:10013000300803178D000313310803178F008D0A51
:1001400003198F0A03100313AD0B5628AE1B8B1730
:100150000800B5010408B4003510831B3514AE1F28
:10016000B928B417341EB40AAD09AE09AD0A031993
:10017000AE0A2E0EF038B000B007E23EB100323EBB
:10018000B3002E080F39B107B107B307E93EB2003B
:10019000B207B2072D0E0F39B207B307B20DB30D78
:1001A000B309B30D2D080F39B307B00D0730AF00F9
:1001B0000A30B307B203031CD928B207B103031CEA
:1001C000DD28B107B003031CE128B007AF03031C0F
:1001D000E5282F308400831307303405341384035B
:1001E0003405031DFA28341A840A341AFA282030F8
:1001F000F700172984073330040203193417000865
:10020000F700031D0B29341B0B29341A1B29B419C1
:100210000B2920301629B41F13292D30F700840331
:100220003413B4131729B41534123030F707770894
:100230000C1E18299900840A341FFB280800831615
:10024000061683122810061A281428185729831610
:1002500086108312861483168510831285108316E8
:10026000051183120511AB08031D3929AC080319C8
:1002700056298A3003178D0001308F000310223079
:100280000313AD005320103084002C08AE002B085F
:10029000AD00A9209C3003178D0001308F0003149E
:1002A0000D300313AD005320AC01AB01862983163A
:1002B0008610831286108316851083128514831688
:1002C000051183120511AB08031D6929AC08031938
:1002D0008629A43003178D0001308F0003101F30D2
:1002E0000313AD005320103084002C08AE002B08FF
:1002F000AD00A920B53003178D0001308F00031029
:100300000C300313AD005320AC01AB010B108A116C
:100310000A121F28C43AF230E3346F37A0326E104D
:10032000C539F430E4372022E5396236EF38F5324A
:1003300061326F103A1025266410D332E73A6E32DC
:10034000EF3920050D100000C43AF230E3346F3766
:10035000A0326E10C539F430E4372021EC37F13A81
:10036000E530E437201DA0124C32A029E533753763
:10037000E43773108A06000003081F398300193020
:1003800083169900A6309800903083129800FF30B1
:10039000A7001930831692000430831292002711AF
:1003A0002708831687000C30831295003C30970095
:1003B000AA01A901AC01AB01A81083161F149F1458
:1003C0001F159F1107309C008313013085001030EA
:1003D0008600003087008312A700831685018312F0
:1003E00085018316860183128601A7008316870183
:1003F000831287018B158B16C0308B04831601087E
:10040000C73908388100833083128100A81427106F
:0E04100027088316870083120714062A63004C
:02400E00313F40
:00000001FF
;PIC16F877A
;CRC=97FE  CREATED="10-oct.-14 03:18"
