:1000000000308A0063280000FF00030E8301A10076
:100010000A08A0008A010408A2007708A300780853
:10002000A4007908A5007A08A600831383128B1E0A
:100030001B280B1930288B1D1F280B18332822086A
:1000400084002308F7002408F8002508F900260892
:10005000FA0020088A00210E8300FF0E7F0E09009F
:100060008A110A1236288A110A124E28833081001A
:10007000A90A0319AA0A2908403C031D4A282A088C
:100080001F3C031D4A28831606110430831286067E
:10009000AA01A9010B118A110A121F28831606163C
:1000A00083122810061A281428185B288316861035
:1000B000831286145F2883168610831286100B1015
:1000C0008A110A121F2803081F398300831605109E
:1000D00083120514FF30A7001930831692000430F4
:1000E0008312920027112708831687000C30831291
:1000F00095003C309700AA01A90183161F149F1494
:100100001F159F1107309C008313013085001030AC
:100110008600003087008312A700831685018312B2
:1001200085018316860183128601A7008316870145
:10013000831287018B158B16C0308B048316010840
:10014000C73908388100833083128100A6286300F4
:02400E00313F40
:00000001FF
;PIC16F877A
;CRC=B68F  CREATED="10-oct.-14 01:59"
