:1000000001308A00AA290000FF00030E8301A1002D
:100010000A08A0008A010408A2007708A300780853
:10002000A4007908A5007A08A600831383128B1E0A
:100030001B280B1930288B1D1F280B18332822086A
:1000400084002308F7002408F8002508F900260892
:10005000FA0020088A00210E8300FF0E7F0E09009F
:100060008A110A1236288A110A121D29833081004A
:10007000A90A0319AA0A2908403C031D4D282A0889
:100080001F3C031D4D28831606110430831286067B
:10009000AB0A0319AC0AAA01A9010B118A110A12B1
:1000A0001F280B08AE008B13831603178C170C1434
:1000B000000000000318842883120C087F39031302
:1000C000AF0003170D080313B00003170F08031345
:1000D000B1002F080C1E6A289900300803178D0004
:1000E0000313310803178F0083168C170C140000BC
:1000F000000083120313AD0B7E288128831603179B
:100100008428A4288316031783120C0D0E0D7F3943
:100110000313AF0003170D080313B00003170F08F4
:100120000313B1002F080C1E932899003008031701
:100130008D000313310803178F008D0A03198F0AEE
:1001400003100313AD0B5428AE1B8B170800B50129
:100150000408B4003510831B3514AE1FB728B4173C
:10016000341EB40AAD09AE09AD0A0319AE0A2E0E4B
:10017000F038B000B007E23EB100323EB3002E08C6
:100180000F39B107B107B307E93EB200B207B207B2
:100190002D0E0F39B207B307B20DB30DB309B30D6E
:1001A0002D080F39B307B00D0730AF000A30B30781
:1001B000B203031CD728B207B103031CDB28B10725
:1001C000B003031CDF28B007AF03031CE3282F3064
:1001D0008400831307303405341384033405031D6E
:1001E000F828341A840A341AF8282030F700152920
:1001F000840733300402031934170008F700031D85
:100200000929341B0929341A1929B419092920305C
:100210001429B41F11292D30F70084033413B413AB
:100220001529B41534123030F70777080C1E16293B
:100230009900840A341FF9280800831606168312D1
:100240002810061A281428184D29831686108312A0
:100250008614AB08031D2F29AC0803194C297830EC
:1002600003178D0001308F00031022300313AD00FF
:100270005120103084002C08AE002B08AD00A720C0
:100280008A3003178D0001308F0003140D300313E3
:10029000AD005120AC01AB01742983168610831286
:1002A0008610AB08031D5729AC0803197429923036
:1002B00003178D0001308F0003101F300313AD00B2
:1002C0005120103084002C08AE002B08AD00A72070
:1002D000A33003178D0001308F0003100C3003137F
:1002E000AD005120AC01AB010B108A110A121F287E
:1002F000C43AF230E3346F37A0326E10C539F430AF
:10030000E4372022E5396236EF38F53261326F107A
:100310003A1025266410D332E73A6E32EF392005C1
:100320000D100000C43AF230E3346F37A0326E1083
:10033000C539F430E4372021EC37F13AE530E437C1
:10034000201DA0124C32A029E5337537E437731015
:100350008A06000003081F398300193083169900AC
:10036000A6309800903083129800FF30A700193013
:1003700083169200043083129200271127088316F7
:1003800087000C30831295003C309700AA01A90128
:10039000AC01AB0183161F149F141F159F1107306A
:1003A0009C008313013085001030860000308700E8
:1003B0008312A700831685018312850183168601A7
:1003C00083128601A70083168701831287018B158C
:1003D0008B16C0308B0483160108C739083881009A
:0A03E000833083128100F3296300CB
:02400E00313F40
:00000001FF
;PIC16F877A
;CRC=1E37  CREATED="10-oct.-14 03:03"
